{
  "contractName": "MarketplaceEngine",
  "abi": [
    {
      "anonymous": false,
      "inputs": [
        {
          "indexed": true,
          "internalType": "address",
          "name": "_from",
          "type": "address"
        },
        {
          "indexed": true,
          "internalType": "address",
          "name": "_to",
          "type": "address"
        },
        {
          "indexed": false,
          "internalType": "uint256",
          "name": "_value",
          "type": "uint256"
        }
      ],
      "name": "Transfer",
      "type": "event"
    },
    {
      "constant": true,
      "inputs": [
        {
          "internalType": "address",
          "name": "",
          "type": "address"
        }
      ],
      "name": "houseForSale",
      "outputs": [
        {
          "internalType": "uint256",
          "name": "idHouse",
          "type": "uint256"
        },
        {
          "internalType": "string",
          "name": "addressHouse",
          "type": "string"
        },
        {
          "internalType": "uint256",
          "name": "price",
          "type": "uint256"
        },
        {
          "internalType": "uint256",
          "name": "surface",
          "type": "uint256"
        },
        {
          "internalType": "string",
          "name": "description",
          "type": "string"
        },
        {
          "internalType": "address",
          "name": "salesman",
          "type": "address"
        },
        {
          "internalType": "uint256",
          "name": "roomCount",
          "type": "uint256"
        },
        {
          "internalType": "uint256",
          "name": "date",
          "type": "uint256"
        }
      ],
      "payable": false,
      "stateMutability": "view",
      "type": "function"
    },
    {
      "constant": false,
      "inputs": [
        {
          "internalType": "string",
          "name": "_addressHouse",
          "type": "string"
        },
        {
          "internalType": "uint256",
          "name": "_price",
          "type": "uint256"
        },
        {
          "internalType": "uint256",
          "name": "_surface",
          "type": "uint256"
        },
        {
          "internalType": "string",
          "name": "_description",
          "type": "string"
        },
        {
          "internalType": "address[]",
          "name": "_documents",
          "type": "address[]"
        },
        {
          "internalType": "address",
          "name": "_salesman",
          "type": "address"
        },
        {
          "internalType": "uint256",
          "name": "_roomCount",
          "type": "uint256"
        },
        {
          "internalType": "uint256",
          "name": "_date",
          "type": "uint256"
        }
      ],
      "name": "addHouse",
      "outputs": [],
      "payable": false,
      "stateMutability": "nonpayable",
      "type": "function"
    },
    {
      "constant": false,
      "inputs": [
        {
          "internalType": "address",
          "name": "receiver",
          "type": "address"
        },
        {
          "internalType": "uint256",
          "name": "amount",
          "type": "uint256"
        }
      ],
      "name": "buyHouse",
      "outputs": [
        {
          "internalType": "bool",
          "name": "sufficifient",
          "type": "bool"
        }
      ],
      "payable": false,
      "stateMutability": "nonpayable",
      "type": "function"
    }
  ],
  "bytecode": "0x608060405234801561001057600080fd5b50610aed806100206000396000f3fe608060405234801561001057600080fd5b50600436106100415760003560e01c806372f2bdf414610046578063ac5fb185146100ac578063f955c3431461022b575b600080fd5b6100926004803603604081101561005c57600080fd5b81019080803573ffffffffffffffffffffffffffffffffffffffff1690602001909291908035906020019092919050505061045a565b604051808215151515815260200191505060405180910390f35b6100ee600480360360208110156100c257600080fd5b81019080803573ffffffffffffffffffffffffffffffffffffffff16906020019092919050505061063a565b6040518089815260200180602001888152602001878152602001806020018673ffffffffffffffffffffffffffffffffffffffff1673ffffffffffffffffffffffffffffffffffffffff16815260200185815260200184815260200183810383528a818151815260200191508051906020019080838360005b83811015610182578082015181840152602081019050610167565b50505050905090810190601f1680156101af5780820380516001836020036101000a031916815260200191505b50838103825287818151815260200191508051906020019080838360005b838110156101e85780820151818401526020810190506101cd565b50505050905090810190601f1680156102155780820380516001836020036101000a031916815260200191505b509a505050505050505050505060405180910390f35b610458600480360361010081101561024257600080fd5b810190808035906020019064010000000081111561025f57600080fd5b82018360208201111561027157600080fd5b8035906020019184600183028401116401000000008311171561029357600080fd5b91908080601f016020809104026020016040519081016040528093929190818152602001838380828437600081840152601f19601f82011690508083019250505050505050919291929080359060200190929190803590602001909291908035906020019064010000000081111561030a57600080fd5b82018360208201111561031c57600080fd5b8035906020019184600183028401116401000000008311171561033e57600080fd5b91908080601f016020809104026020016040519081016040528093929190818152602001838380828437600081840152601f19601f820116905080830192505050505050509192919290803590602001906401000000008111156103a157600080fd5b8201836020820111156103b357600080fd5b803590602001918460208302840111640100000000831117156103d557600080fd5b919080806020026020016040519081016040528093929190818152602001838360200280828437600081840152601f19601f820116905080830192505050505050509192919290803573ffffffffffffffffffffffffffffffffffffffff16906020019092919080359060200190929190803590602001909291905050506107d2565b005b600081600160003373ffffffffffffffffffffffffffffffffffffffff1673ffffffffffffffffffffffffffffffffffffffff1681526020019081526020016000205410156104ac5760009050610634565b600260003373ffffffffffffffffffffffffffffffffffffffff1673ffffffffffffffffffffffffffffffffffffffff16815260200190815260200160002060020154600160003373ffffffffffffffffffffffffffffffffffffffff1673ffffffffffffffffffffffffffffffffffffffff16815260200190815260200160002060008282540392505081905550600260003373ffffffffffffffffffffffffffffffffffffffff1673ffffffffffffffffffffffffffffffffffffffff16815260200190815260200160002060020154600160008573ffffffffffffffffffffffffffffffffffffffff1673ffffffffffffffffffffffffffffffffffffffff168152602001908152602001600020600082825401925050819055508273ffffffffffffffffffffffffffffffffffffffff163373ffffffffffffffffffffffffffffffffffffffff167fddf252ad1be2c89b69c2b068fc378daa952ba7f163c4a11628f55a4df523b3ef846040518082815260200191505060405180910390a3600190505b92915050565b6002602052806000526040600020600091509050806000015490806001018054600181600116156101000203166002900480601f0160208091040260200160405190810160405280929190818152602001828054600181600116156101000203166002900480156106ec5780601f106106c1576101008083540402835291602001916106ec565b820191906000526020600020905b8154815290600101906020018083116106cf57829003601f168201915b505050505090806002015490806003015490806004018054600181600116156101000203166002900480601f0160208091040260200160405190810160405280929190818152602001828054600181600116156101000203166002900480156107965780601f1061076b57610100808354040283529160200191610796565b820191906000526020600020905b81548152906001019060200180831161077957829003601f168201915b5050505050908060060160009054906101000a900473ffffffffffffffffffffffffffffffffffffffff16908060070154908060080154905088565b604051806101200160405280600181526020018981526020018881526020018781526020018681526020018581526020018473ffffffffffffffffffffffffffffffffffffffff16815260200183815260200182815250600260003373ffffffffffffffffffffffffffffffffffffffff1673ffffffffffffffffffffffffffffffffffffffff16815260200190815260200160002060008201518160000155602082015181600101908051906020019061088e929190610946565b50604082015181600201556060820151816003015560808201518160040190805190602001906108bf929190610946565b5060a08201518160050190805190602001906108dc9291906109c6565b5060c08201518160060160006101000a81548173ffffffffffffffffffffffffffffffffffffffff021916908373ffffffffffffffffffffffffffffffffffffffff16021790555060e0820151816007015561010082015181600801559050505050505050505050565b828054600181600116156101000203166002900490600052602060002090601f016020900481019282601f1061098757805160ff19168380011785556109b5565b828001600101855582156109b5579182015b828111156109b4578251825591602001919060010190610999565b5b5090506109c29190610a50565b5090565b828054828255906000526020600020908101928215610a3f579160200282015b82811115610a3e5782518260006101000a81548173ffffffffffffffffffffffffffffffffffffffff021916908373ffffffffffffffffffffffffffffffffffffffff160217905550916020019190600101906109e6565b5b509050610a4c9190610a75565b5090565b610a7291905b80821115610a6e576000816000905550600101610a56565b5090565b90565b610ab591905b80821115610ab157600081816101000a81549073ffffffffffffffffffffffffffffffffffffffff021916905550600101610a7b565b5090565b9056fea265627a7a72315820fdd8b24e1a3a7b6836db543dd55d89dbad5f5e8dac341c634c5d0521b67b523064736f6c634300050c0032",
  "source": "pragma solidity >=0.4.21 <0.6.0;\r\n\r\ncontract MarketplaceEngine {\r\n\r\n    struct House {\r\n\r\n        uint256 idHouse;\r\n        string addressHouse;\r\n        uint256 price;\r\n        uint256 surface;\r\n        string description;\r\n        address[] documents;\r\n        address salesman;\r\n        uint256 roomCount;\r\n        uint256 date;\r\n    }\r\n\r\n     uint numCampaigns;\r\n\r\n    event Transfer(address indexed _from, address indexed _to, uint256 _value);\r\n\r\n     mapping (address => uint) balances;\r\n\r\n\r\n    mapping(address => House) public houseForSale;\r\n\r\n    function addHouse(\r\n        string memory _addressHouse,\r\n        uint256 _price,\r\n        uint256 _surface,\r\n        string memory _description,\r\n        address[] memory _documents,\r\n        address _salesman,\r\n        uint256 _roomCount,\r\n        uint256 _date\r\n        ) public {\r\n        houseForSale[msg.sender] = House(1, _addressHouse, _price, _surface, _description, _documents, _salesman, _roomCount, _date);\r\n    }\r\n\r\n    function buyHouse(address receiver, uint amount) public returns(bool sufficifient) {\r\n        if (balances[msg.sender] < amount) {\r\n            return false;\r\n        }\r\n\r\n        // débiter sender\r\n        balances[msg.sender] -= houseForSale[msg.sender].price;\r\n        // augmenter receiver\r\n        balances[receiver] += houseForSale[msg.sender].price;\r\n        emit Transfer(msg.sender, receiver, amount);\r\n        return true;\r\n    }\r\n\r\n\r\n    // function sellHouse() public {\r\n\r\n    // }\r\n\r\n    // function getSaleHouses() public returns(bool sufficifient)  {\r\n    //     return houseForSale;\r\n    // }\r\n\r\n    // function getHouseInfo(address addressHouse) public {\r\n    //      return houseForSale[addressHouse];\r\n    // }\r\n\r\n}",
  "sourcePath": "C:/Users/christopher/WorkSpace/marketPlace/backEnd/contracts/MarketplaceEngine.sol",
  "compiler": {
    "name": "solc",
    "version": "0.5.12+commit.7709ece9.Emscripten.clang"
  },
  "schemaVersion": "3.0.19",
  "updatedAt": "2019-11-28T21:57:11.729Z",
  "devdoc": {
    "methods": {}
  },
  "userdoc": {
    "methods": {}
  }
}