{
  "contractName": "MarketplaceEngine",
  "abi": [
    {
      "constant": true,
      "inputs": [
        {
          "internalType": "address",
          "name": "",
          "type": "address"
        }
      ],
      "name": "houseForSale",
      "outputs": [
        {
          "internalType": "uint256",
          "name": "idHouse",
          "type": "uint256"
        },
        {
          "internalType": "string",
          "name": "addressHouse",
          "type": "string"
        },
        {
          "internalType": "uint256",
          "name": "price",
          "type": "uint256"
        },
        {
          "internalType": "uint256",
          "name": "surface",
          "type": "uint256"
        },
        {
          "internalType": "string",
          "name": "description",
          "type": "string"
        },
        {
          "internalType": "address",
          "name": "salesman",
          "type": "address"
        },
        {
          "internalType": "uint256",
          "name": "roomCount",
          "type": "uint256"
        },
        {
          "internalType": "uint256",
          "name": "date",
          "type": "uint256"
        }
      ],
      "payable": false,
      "stateMutability": "view",
      "type": "function"
    },
    {
      "constant": false,
      "inputs": [
        {
          "internalType": "string",
          "name": "_addressHouse",
          "type": "string"
        },
        {
          "internalType": "uint256",
          "name": "_price",
          "type": "uint256"
        },
        {
          "internalType": "uint256",
          "name": "_surface",
          "type": "uint256"
        },
        {
          "internalType": "string",
          "name": "_description",
          "type": "string"
        },
        {
          "internalType": "address[]",
          "name": "_documents",
          "type": "address[]"
        },
        {
          "internalType": "address",
          "name": "_salesman",
          "type": "address"
        },
        {
          "internalType": "uint256",
          "name": "_roomCount",
          "type": "uint256"
        },
        {
          "internalType": "uint256",
          "name": "_date",
          "type": "uint256"
        }
      ],
      "name": "addHouse",
      "outputs": [],
      "payable": false,
      "stateMutability": "nonpayable",
      "type": "function"
    },
    {
      "constant": false,
      "inputs": [],
      "name": "buyHouse",
      "outputs": [],
      "payable": false,
      "stateMutability": "nonpayable",
      "type": "function"
    },
    {
      "constant": false,
      "inputs": [],
      "name": "sellHouse",
      "outputs": [],
      "payable": false,
      "stateMutability": "nonpayable",
      "type": "function"
    },
    {
      "constant": false,
      "inputs": [],
      "name": "getSaleHouses",
      "outputs": [],
      "payable": false,
      "stateMutability": "nonpayable",
      "type": "function"
    },
    {
      "constant": false,
      "inputs": [],
      "name": "getHouseInfo",
      "outputs": [],
      "payable": false,
      "stateMutability": "nonpayable",
      "type": "function"
    }
  ],
  "bytecode": "0x608060405234801561001057600080fd5b506108f8806100206000396000f3fe608060405234801561001057600080fd5b50600436106100625760003560e01c806335e10c2814610067578063763af8c61461007157806397b437bd1461007b578063ac5fb18514610085578063d111966414610204578063f955c3431461020e575b600080fd5b61006f61043d565b005b61007961043f565b005b610083610441565b005b6100c76004803603602081101561009b57600080fd5b81019080803573ffffffffffffffffffffffffffffffffffffffff169060200190929190505050610443565b6040518089815260200180602001888152602001878152602001806020018673ffffffffffffffffffffffffffffffffffffffff1673ffffffffffffffffffffffffffffffffffffffff16815260200185815260200184815260200183810383528a818151815260200191508051906020019080838360005b8381101561015b578082015181840152602081019050610140565b50505050905090810190601f1680156101885780820380516001836020036101000a031916815260200191505b50838103825287818151815260200191508051906020019080838360005b838110156101c15780820151818401526020810190506101a6565b50505050905090810190601f1680156101ee5780820380516001836020036101000a031916815260200191505b509a505050505050505050505060405180910390f35b61020c6105db565b005b61043b600480360361010081101561022557600080fd5b810190808035906020019064010000000081111561024257600080fd5b82018360208201111561025457600080fd5b8035906020019184600183028401116401000000008311171561027657600080fd5b91908080601f016020809104026020016040519081016040528093929190818152602001838380828437600081840152601f19601f8201169050808301925050505050505091929192908035906020019092919080359060200190929190803590602001906401000000008111156102ed57600080fd5b8201836020820111156102ff57600080fd5b8035906020019184600183028401116401000000008311171561032157600080fd5b91908080601f016020809104026020016040519081016040528093929190818152602001838380828437600081840152601f19601f8201169050808301925050505050505091929192908035906020019064010000000081111561038457600080fd5b82018360208201111561039657600080fd5b803590602001918460208302840111640100000000831117156103b857600080fd5b919080806020026020016040519081016040528093929190818152602001838360200280828437600081840152601f19601f820116905080830192505050505050509192919290803573ffffffffffffffffffffffffffffffffffffffff16906020019092919080359060200190929190803590602001909291905050506105dd565b005b565b565b565b6001602052806000526040600020600091509050806000015490806001018054600181600116156101000203166002900480601f0160208091040260200160405190810160405280929190818152602001828054600181600116156101000203166002900480156104f55780601f106104ca576101008083540402835291602001916104f5565b820191906000526020600020905b8154815290600101906020018083116104d857829003601f168201915b505050505090806002015490806003015490806004018054600181600116156101000203166002900480601f01602080910402602001604051908101604052809291908181526020018280546001816001161561010002031660029004801561059f5780601f106105745761010080835404028352916020019161059f565b820191906000526020600020905b81548152906001019060200180831161058257829003601f168201915b5050505050908060060160009054906101000a900473ffffffffffffffffffffffffffffffffffffffff16908060070154908060080154905088565b565b604051806101200160405280600181526020018981526020018881526020018781526020018681526020018581526020018473ffffffffffffffffffffffffffffffffffffffff16815260200183815260200182815250600160003373ffffffffffffffffffffffffffffffffffffffff1673ffffffffffffffffffffffffffffffffffffffff168152602001908152602001600020600082015181600001556020820151816001019080519060200190610699929190610751565b50604082015181600201556060820151816003015560808201518160040190805190602001906106ca929190610751565b5060a08201518160050190805190602001906106e79291906107d1565b5060c08201518160060160006101000a81548173ffffffffffffffffffffffffffffffffffffffff021916908373ffffffffffffffffffffffffffffffffffffffff16021790555060e0820151816007015561010082015181600801559050505050505050505050565b828054600181600116156101000203166002900490600052602060002090601f016020900481019282601f1061079257805160ff19168380011785556107c0565b828001600101855582156107c0579182015b828111156107bf5782518255916020019190600101906107a4565b5b5090506107cd919061085b565b5090565b82805482825590600052602060002090810192821561084a579160200282015b828111156108495782518260006101000a81548173ffffffffffffffffffffffffffffffffffffffff021916908373ffffffffffffffffffffffffffffffffffffffff160217905550916020019190600101906107f1565b5b5090506108579190610880565b5090565b61087d91905b80821115610879576000816000905550600101610861565b5090565b90565b6108c091905b808211156108bc57600081816101000a81549073ffffffffffffffffffffffffffffffffffffffff021916905550600101610886565b5090565b9056fea265627a7a7231582095482c8fd6b726b74823993b1d2a555ec8d65280c70136c653e1e65a37f1de9864736f6c634300050c0032",
  "source": "pragma solidity >=0.4.21 <0.6.0;\r\n\r\ncontract MarketplaceEngine {\r\n\r\n    struct House {\r\n\r\n        uint256 idHouse;\r\n        string addressHouse;\r\n        uint256 price;\r\n        uint256 surface;\r\n        string description;\r\n        address[] documents;\r\n        address salesman;\r\n        uint256 roomCount;\r\n        uint256 date;\r\n    }\r\n\r\n     uint numCampaigns;\r\n\r\n\r\n    mapping(address => House) public houseForSale;\r\n\r\n    function addHouse(\r\n        string memory _addressHouse,\r\n        uint256 _price,\r\n        uint256 _surface,\r\n        string memory _description,\r\n        address[] memory _documents,\r\n        address _salesman,\r\n        uint256 _roomCount,\r\n        uint256 _date\r\n        ) public {\r\n        houseForSale[msg.sender] = House(1, _addressHouse, _price, _surface, _description, _documents, _salesman, _roomCount, _date);\r\n    }\r\n\r\n    function buyHouse() public {\r\n\r\n    }\r\n\r\n    function sellHouse() public {\r\n\r\n    }\r\n\r\n    function getSaleHouses() public {\r\n        //return houseForSale[idHouse];\r\n    }\r\n\r\n    function getHouseInfo() public {\r\n\r\n    }\r\n\r\n\r\n}",
  "sourcePath": "C:/Users/christopher/WorkSpace/marketPlace/backEnd/contracts/MarketplaceEngine.sol",
  "compiler": {
    "name": "solc",
    "version": "0.5.12+commit.7709ece9.Emscripten.clang"
  },
  "schemaVersion": "3.0.19",
  "updatedAt": "2019-11-24T01:04:25.972Z",
  "devdoc": {
    "methods": {}
  },
  "userdoc": {
    "methods": {}
  }
}